:1000000009C016C015C020C013C012C011C010C056
:10001000EAC00EC011241FBECFE9CDBF10E0A0E69C
:10002000B0E001C01D92A636B107E1F71BD13EC179
:10003000E7CFFC01808190E002C0959587956A9595
:10004000E2F78095817008951F920F920FB60F927C
:1000500011242F933F938F939F93809164009091ED
:100060006500019690936500809364008091640020
:10007000909165008330910509F481C0F0F08430DF
:10008000910509F44FC00597A9F1209164003091C2
:10009000650080916200909163002817390721F470
:1000A00010926500109264009F918F913F912F9163
:1000B0000F900FBE0F901F9018958130910509F495
:1000C00048C0029711F780916000909161000197FC
:1000D00009F474C08091600090916100029709F466
:1000E0006AC08091600090916100039771F687E18A
:1000F00088BBCBCF8091600090916100019709F49B
:1001000063C08091600090916100029709F459C02A
:100110008091600090916100039709F0B6CF81E073
:1001200088BBB3CF8091600090916100019709F482
:100130003FC080916000909161000297B1F1809181
:10014000600090916100039709F09FCF85E088BB24
:100150009CCF80916000909161000197D9F18091CE
:10016000600090916100029791F180916000909100
:100170006100039709F089CF8FE188BB86CF80911A
:10018000600090916100019759F180916000909119
:100190006100029711F180916000909161000397D6
:1001A00009F073CF87E088BB70CF83E088BBC7CFEF
:1001B0008DE388BBBECF89E088BB93CF87E388BB44
:1001C00089CF85E088BBA4CF8BE388BB9ACF81E23F
:1001D00088BBCBCF8FE188BBC2CF81E188BBDBCFAF
:1001E0008FE288BBD2CF1F920F920FB60F921124CD
:1001F0008F939F93B09909C08091600090916100A6
:10020000019690936100809360009F918F910F9071
:100210000FBE0F901F9018958EEF87BB8FEF88BB96
:1002200013BE12BE1092650010926400109261001D
:100230001092600085E090E09093630080936200EC
:1002400083B7856083BF19BE82E089BF789481B58A
:10025000876081BD81B5806481BD85B7877E8061FF
:1002600085BF0895D9DF2FEF8091600090916100E4
:10027000892B39F485B7806285BF889585B78F7DD6
:1002800085BF8091600090916100049769F7F894B0
:10029000109261001092600028BB789485B780624C
:1002A00085BF889585B78F7D85BFDECFF894FFCF5A
:00000001FF
